{"abi":[{"type":"constructor","inputs":[{"name":"_initialBond","type":"uint256","internalType":"uint256"}],"stateMutability":"nonpayable"},{"type":"function","name":"setBond","inputs":[{"name":"_newBond","type":"uint256","internalType":"uint256"}],"outputs":[],"stateMutability":"nonpayable"},{"type":"function","name":"totalBonded","inputs":[],"outputs":[{"name":"","type":"uint256","internalType":"uint256"}],"stateMutability":"view"}],"bytecode":{"object":"0x608060405234801561000f575f80fd5b506040516101d23803806101d283398181016040528101906100319190610074565b805f819055505061009f565b5f80fd5b5f819050919050565b61005381610041565b811461005d575f80fd5b50565b5f8151905061006e8161004a565b92915050565b5f602082840312156100895761008861003d565b5b5f61009684828501610060565b91505092915050565b610126806100ac5f395ff3fe6080604052348015600e575f80fd5b50600436106030575f3560e01c8063259bd92014603457806344d96e9514604c575b5f80fd5b604a60048036038101906046919060a6565b6066565b005b6052606f565b604051605d919060d9565b60405180910390f35b805f8190555050565b5f5481565b5f80fd5b5f819050919050565b6088816078565b81146091575f80fd5b50565b5f8135905060a0816081565b92915050565b5f6020828403121560b85760b76074565b5b5f60c3848285016094565b91505092915050565b60d3816078565b82525050565b5f60208201905060ea5f83018460cc565b9291505056fea26469706673582212204e0aba3b97d6d239f50763973a7d6c40e0825146c7495e9e98f0f2863037b7c964736f6c63430008140033","linkReferences":{}},"methodIdentifiers":{"setBond(uint256)":"259bd920","totalBonded()":"44d96e95"},"id":1}