{"abi":[{"type":"constructor","inputs":[],"stateMutability":"nonpayable"},{"type":"function","name":"BOND_THRESHOLD","inputs":[],"outputs":[{"name":"","type":"uint256","internalType":"uint256"}],"stateMutability":"view"},{"type":"function","name":"TARGET_CONTRACT","inputs":[],"outputs":[{"name":"","type":"address","internalType":"address"}],"stateMutability":"view"},{"type":"function","name":"collect","inputs":[],"outputs":[{"name":"","type":"bytes","internalType":"bytes"}],"stateMutability":"view"},{"type":"function","name":"shouldRespond","inputs":[{"name":"data","type":"bytes[]","internalType":"bytes[]"}],"outputs":[{"name":"","type":"bool","internalType":"bool"},{"name":"","type":"bytes","internalType":"bytes"}],"stateMutability":"pure"}],"bytecode":{"object":"0x608060405234801561000f575f80fd5b5061073e8061001d5f395ff3fe608060405234801561000f575f80fd5b506004361061004a575f3560e01c806344e6e4ce1461004e57806359dd723d1461007f5780637bffb1941461009d578063e5225381146100bb575b5f80fd5b610068600480360381019061006391906103c3565b6100d9565b6040516100769291906104b2565b60405180910390f35b6100876101c8565b60405161009491906104f8565b60405180910390f35b6100a56101d5565b6040516100b29190610550565b60405180910390f35b6100c36101ed565b6040516100d09190610569565b60405180910390f35b5f60605f84849050148061011257505f84845f8181106100fc576100fb610589565b5b905060200281019061010e91906105c2565b9050145b15610130575f60405180602001604052805f815250915091506101c1565b5f84845f81811061014457610143610589565b5b905060200281019061015691906105c2565b810190610163919061064e565b905068056bc75e2d631000008110156101ab57600168056bc75e2d6310000060405160200161019291906104f8565b60405160208183030381529060405292509250506101c1565b5f60405180602001604052805f81525092509250505b9250929050565b68056bc75e2d6310000081565b73a5cc2ec93873c7393a220f25cddc71f2307fcd2d81565b60605f8073a5cc2ec93873c7393a220f25cddc71f2307fcd2d73ffffffffffffffffffffffffffffffffffffffff166040516024016040516020818303038152906040527f44d96e95000000000000000000000000000000000000000000000000000000007bffffffffffffffffffffffffffffffffffffffffffffffffffffffff19166020820180517bffffffffffffffffffffffffffffffffffffffffffffffffffffffff83818316178352505050506040516102ac91906106b3565b5f60405180830381855afa9150503d805f81146102e4576040519150601f19603f3d011682016040523d82523d5f602084013e6102e9565b606091505b50915091508115806102fd57506020815114155b1561031a5760405180602001604052805f81525092505050610357565b5f8180602001905181019061032f91906106dd565b90508060405160200161034291906104f8565b60405160208183030381529060405293505050505b90565b5f80fd5b5f80fd5b5f80fd5b5f80fd5b5f80fd5b5f8083601f84011261038357610382610362565b5b8235905067ffffffffffffffff8111156103a05761039f610366565b5b6020830191508360208202830111156103bc576103bb61036a565b5b9250929050565b5f80602083850312156103d9576103d861035a565b5b5f83013567ffffffffffffffff8111156103f6576103f561035e565b5b6104028582860161036e565b92509250509250929050565b5f8115159050919050565b6104228161040e565b82525050565b5f81519050919050565b5f82825260208201905092915050565b5f5b8381101561045f578082015181840152602081019050610444565b5f8484015250505050565b5f601f19601f8301169050919050565b5f61048482610428565b61048e8185610432565b935061049e818560208601610442565b6104a78161046a565b840191505092915050565b5f6040820190506104c55f830185610419565b81810360208301526104d7818461047a565b90509392505050565b5f819050919050565b6104f2816104e0565b82525050565b5f60208201905061050b5f8301846104e9565b92915050565b5f73ffffffffffffffffffffffffffffffffffffffff82169050919050565b5f61053a82610511565b9050919050565b61054a81610530565b82525050565b5f6020820190506105635f830184610541565b92915050565b5f6020820190508181035f830152610581818461047a565b905092915050565b7f4e487b71000000000000000000000000000000000000000000000000000000005f52603260045260245ffd5b5f80fd5b5f80fd5b5f80fd5b5f80833560016020038436030381126105de576105dd6105b6565b5b80840192508235915067ffffffffffffffff821115610600576105ff6105ba565b5b60208301925060018202360383131561061c5761061b6105be565b5b509250929050565b61062d816104e0565b8114610637575f80fd5b50565b5f8135905061064881610624565b92915050565b5f602082840312156106635761066261035a565b5b5f6106708482850161063a565b91505092915050565b5f81905092915050565b5f61068d82610428565b6106978185610679565b93506106a7818560208601610442565b80840191505092915050565b5f6106be8284610683565b915081905092915050565b5f815190506106d781610624565b92915050565b5f602082840312156106f2576106f161035a565b5b5f6106ff848285016106c9565b9150509291505056fea2646970667358221220bde3df182e8aac74a79ccbee46cf5f4a34d5f000334678420c132e9e31585a0864736f6c63430008140033","linkReferences":{}},"methodIdentifiers":{"BOND_THRESHOLD()":"59dd723d","TARGET_CONTRACT()":"7bffb194","collect()":"e5225381","shouldRespond(bytes[])":"44e6e4ce"},"id":34}