{"abi":[{"type":"constructor","inputs":[],"stateMutability":"nonpayable"},{"type":"function","name":"RECOVERY_VALUE","inputs":[],"outputs":[{"name":"","type":"uint256","internalType":"uint256"}],"stateMutability":"view"},{"type":"function","name":"TARGET_CONTRACT","inputs":[],"outputs":[{"name":"","type":"address","internalType":"address"}],"stateMutability":"view"},{"type":"function","name":"TRIGGER_THRESHOLD","inputs":[],"outputs":[{"name":"","type":"uint256","internalType":"uint256"}],"stateMutability":"view"},{"type":"function","name":"collect","inputs":[],"outputs":[{"name":"","type":"bytes","internalType":"bytes"}],"stateMutability":"view"},{"type":"function","name":"shouldRespond","inputs":[{"name":"data","type":"bytes[]","internalType":"bytes[]"}],"outputs":[{"name":"","type":"bool","internalType":"bool"},{"name":"","type":"bytes","internalType":"bytes"}],"stateMutability":"pure"}],"bytecode":{"object":"0x608060405234801561000f575f80fd5b506107748061001d5f395ff3fe608060405234801561000f575f80fd5b5060043610610055575f3560e01c806306419d261461005957806344e6e4ce146100775780636eedf4c8146100a85780637bffb194146100c6578063e5225381146100e4575b5f80fd5b610061610102565b60405161006e91906103a8565b60405180910390f35b610091600480360381019061008c919061042a565b61010f565b60405161009f929190610519565b60405180910390f35b6100b06101fe565b6040516100bd91906103a8565b60405180910390f35b6100ce61020b565b6040516100db9190610586565b60405180910390f35b6100ec610223565b6040516100f9919061059f565b60405180910390f35b680410d586a20a4c000081565b5f60605f84849050148061014857505f84845f818110610132576101316105bf565b5b905060200281019061014491906105f8565b9050145b15610166575f60405180602001604052805f815250915091506101f7565b5f84845f81811061017a576101796105bf565b5b905060200281019061018c91906105f8565b8101906101999190610684565b9050680410d586a20a4c00008110156101e157600168056bc75e2d631000006040516020016101c891906103a8565b60405160208183030381529060405292509250506101f7565b5f60405180602001604052805f81525092509250505b9250929050565b68056bc75e2d6310000081565b73a5cc2ec93873c7393a220f25cddc71f2307fcd2d81565b60605f8073a5cc2ec93873c7393a220f25cddc71f2307fcd2d73ffffffffffffffffffffffffffffffffffffffff166040516024016040516020818303038152906040527f44d96e95000000000000000000000000000000000000000000000000000000007bffffffffffffffffffffffffffffffffffffffffffffffffffffffff19166020820180517bffffffffffffffffffffffffffffffffffffffffffffffffffffffff83818316178352505050506040516102e291906106e9565b5f60405180830381855afa9150503d805f811461031a576040519150601f19603f3d011682016040523d82523d5f602084013e61031f565b606091505b509150915081158061033357506020815114155b156103505760405180602001604052805f8152509250505061038d565b5f818060200190518101906103659190610713565b90508060405160200161037891906103a8565b60405160208183030381529060405293505050505b90565b5f819050919050565b6103a281610390565b82525050565b5f6020820190506103bb5f830184610399565b92915050565b5f80fd5b5f80fd5b5f80fd5b5f80fd5b5f80fd5b5f8083601f8401126103ea576103e96103c9565b5b8235905067ffffffffffffffff811115610407576104066103cd565b5b602083019150836020820283011115610423576104226103d1565b5b9250929050565b5f80602083850312156104405761043f6103c1565b5b5f83013567ffffffffffffffff81111561045d5761045c6103c5565b5b610469858286016103d5565b92509250509250929050565b5f8115159050919050565b61048981610475565b82525050565b5f81519050919050565b5f82825260208201905092915050565b5f5b838110156104c65780820151818401526020810190506104ab565b5f8484015250505050565b5f601f19601f8301169050919050565b5f6104eb8261048f565b6104f58185610499565b93506105058185602086016104a9565b61050e816104d1565b840191505092915050565b5f60408201905061052c5f830185610480565b818103602083015261053e81846104e1565b90509392505050565b5f73ffffffffffffffffffffffffffffffffffffffff82169050919050565b5f61057082610547565b9050919050565b61058081610566565b82525050565b5f6020820190506105995f830184610577565b92915050565b5f6020820190508181035f8301526105b781846104e1565b905092915050565b7f4e487b71000000000000000000000000000000000000000000000000000000005f52603260045260245ffd5b5f80fd5b5f80fd5b5f80fd5b5f8083356001602003843603038112610614576106136105ec565b5b80840192508235915067ffffffffffffffff821115610636576106356105f0565b5b602083019250600182023603831315610652576106516105f4565b5b509250929050565b61066381610390565b811461066d575f80fd5b50565b5f8135905061067e8161065a565b92915050565b5f60208284031215610699576106986103c1565b5b5f6106a684828501610670565b91505092915050565b5f81905092915050565b5f6106c38261048f565b6106cd81856106af565b93506106dd8185602086016104a9565b80840191505092915050565b5f6106f482846106b9565b915081905092915050565b5f8151905061070d8161065a565b92915050565b5f60208284031215610728576107276103c1565b5b5f610735848285016106ff565b9150509291505056fea26469706673582212202d2f8bb3e6b35f4670d8726e463d3a954f73cdaa445fc01421e3ad88454134ea64736f6c63430008140033","linkReferences":{}},"methodIdentifiers":{"RECOVERY_VALUE()":"6eedf4c8","TARGET_CONTRACT()":"7bffb194","TRIGGER_THRESHOLD()":"06419d26","collect()":"e5225381","shouldRespond(bytes[])":"44e6e4ce"},"id":32}