{"abi":[{"type":"constructor","inputs":[],"stateMutability":"nonpayable"},{"type":"function","name":"BOND_THRESHOLD","inputs":[],"outputs":[{"name":"","type":"uint256","internalType":"uint256"}],"stateMutability":"view"},{"type":"function","name":"TARGET_CONTRACT","inputs":[],"outputs":[{"name":"","type":"address","internalType":"address"}],"stateMutability":"view"},{"type":"function","name":"collect","inputs":[],"outputs":[{"name":"","type":"bytes","internalType":"bytes"}],"stateMutability":"view"},{"type":"function","name":"shouldRespond","inputs":[{"name":"data","type":"bytes[]","internalType":"bytes[]"}],"outputs":[{"name":"","type":"bool","internalType":"bool"},{"name":"","type":"bytes","internalType":"bytes"}],"stateMutability":"pure"}],"bytecode":{"object":"0x608060405234801561000f575f80fd5b506106418061001d5f395ff3fe608060405234801561000f575f80fd5b506004361061004a575f3560e01c806344e6e4ce1461004e57806359dd723d1461007f5780637bffb1941461009d578063e5225381146100bb575b5f80fd5b61006860048036038101906100639190610316565b6100d9565b604051610076929190610405565b60405180910390f35b6100876101dc565b604051610094919061044b565b60405180910390f35b6100a56101e9565b6040516100b291906104a3565b60405180910390f35b6100c3610201565b6040516100d091906104bc565b60405180910390f35b5f60605f8484905003610126575f6040518060400160405280600781526020017f4e6f206461746100000000000000000000000000000000000000000000000000815250915091506101d5565b5f84845f81811061013a576101396104dc565b5b905060200281019061014c9190610515565b81019061015991906105a1565b905068056bc75e2d631000008110156101985760018160405160200161017f919061044b565b60405160208183030381529060405292509250506101d5565b5f6040518060400160405280600781526020017f426f6e64204f4b0000000000000000000000000000000000000000000000000081525092509250505b9250929050565b68056bc75e2d6310000081565b7366cdd40e95366c298e990a9b5a2469ba2672948081565b60605f7366cdd40e95366c298e990a9b5a2469ba2672948073ffffffffffffffffffffffffffffffffffffffff16639b09723e6040518163ffffffff1660e01b8152600401602060405180830381865afa158015610261573d5f803e3d5ffd5b505050506040513d601f19601f8201168201806040525081019061028591906105e0565b905080604051602001610298919061044b565b60405160208183030381529060405291505090565b5f80fd5b5f80fd5b5f80fd5b5f80fd5b5f80fd5b5f8083601f8401126102d6576102d56102b5565b5b8235905067ffffffffffffffff8111156102f3576102f26102b9565b5b60208301915083602082028301111561030f5761030e6102bd565b5b9250929050565b5f806020838503121561032c5761032b6102ad565b5b5f83013567ffffffffffffffff811115610349576103486102b1565b5b610355858286016102c1565b92509250509250929050565b5f8115159050919050565b61037581610361565b82525050565b5f81519050919050565b5f82825260208201905092915050565b5f5b838110156103b2578082015181840152602081019050610397565b5f8484015250505050565b5f601f19601f8301169050919050565b5f6103d78261037b565b6103e18185610385565b93506103f1818560208601610395565b6103fa816103bd565b840191505092915050565b5f6040820190506104185f83018561036c565b818103602083015261042a81846103cd565b90509392505050565b5f819050919050565b61044581610433565b82525050565b5f60208201905061045e5f83018461043c565b92915050565b5f73ffffffffffffffffffffffffffffffffffffffff82169050919050565b5f61048d82610464565b9050919050565b61049d81610483565b82525050565b5f6020820190506104b65f830184610494565b92915050565b5f6020820190508181035f8301526104d481846103cd565b905092915050565b7f4e487b71000000000000000000000000000000000000000000000000000000005f52603260045260245ffd5b5f80fd5b5f80fd5b5f80fd5b5f808335600160200384360303811261053157610530610509565b5b80840192508235915067ffffffffffffffff8211156105535761055261050d565b5b60208301925060018202360383131561056f5761056e610511565b5b509250929050565b61058081610433565b811461058a575f80fd5b50565b5f8135905061059b81610577565b92915050565b5f602082840312156105b6576105b56102ad565b5b5f6105c38482850161058d565b91505092915050565b5f815190506105da81610577565b92915050565b5f602082840312156105f5576105f46102ad565b5b5f610602848285016105cc565b9150509291505056fea264697066735822122066af8e02fe89d0b8297018f29462f38a8a3f6394fe0609a00ee3bf5a266c59f264736f6c63430008140033","linkReferences":{}},"methodIdentifiers":{"BOND_THRESHOLD()":"59dd723d","TARGET_CONTRACT()":"7bffb194","collect()":"e5225381","shouldRespond(bytes[])":"44e6e4ce"},"id":2}